{
  "_format": "hh-sol-artifact-1",
  "contractName": "gasChallenge",
  "sourceName": "contracts/gasChallenge.sol",
  "abi": [
    {
      "inputs": [],
      "name": "getSumOfArray",
      "outputs": [
        {
          "internalType": "uint256",
          "name": "",
          "type": "uint256"
        }
      ],
      "stateMutability": "view",
      "type": "function"
    },
    {
      "inputs": [],
      "name": "notOptimizedFunction",
      "outputs": [],
      "stateMutability": "nonpayable",
      "type": "function"
    },
    {
      "inputs": [],
      "name": "optimizedFunction",
      "outputs": [],
      "stateMutability": "nonpayable",
      "type": "function"
    }
  ],
  "bytecode": "0x6080604052604051806101400160405280600160ff168152602001600260ff168152602001600360ff168152602001600460ff168152602001600560ff168152602001600660ff168152602001600760ff168152602001600860ff168152602001600960ff168152602001600a60ff16815250600090600a610082929190610095565b5034801561008f57600080fd5b506100f7565b82600a81019282156100c9579160200282015b828111156100c8578251829060ff169055916020019190600101906100a8565b5b5090506100d691906100da565b5090565b5b808211156100f35760008160009055506001016100db565b5090565b610283806101066000396000f3fe608060405234801561001057600080fd5b50600436106100415760003560e01c806368b5f223146100465780637ce418941461005057806380d2c8031461005a575b600080fd5b61004e610078565b005b6100586100b4565b005b6100626100ee565b60405161006f9190610158565b60405180910390f35b60005b600a8110156100b15760008082600a811061009957610098610173565b5b018190555080806100a9906101d1565b91505061007b565b50565b6000600a905060005b818110156100ea5760008082600a81106100da576100d9610173565b5b01819055508060010190506100bd565b5050565b6000806000905060005b600a81101561013757600081600a811061011557610114610173565b5b0154826101229190610219565b9150808061012f906101d1565b9150506100f8565b508091505090565b6000819050919050565b6101528161013f565b82525050565b600060208201905061016d6000830184610149565b92915050565b7f4e487b7100000000000000000000000000000000000000000000000000000000600052603260045260246000fd5b7f4e487b7100000000000000000000000000000000000000000000000000000000600052601160045260246000fd5b60006101dc8261013f565b91507fffffffffffffffffffffffffffffffffffffffffffffffffffffffffffffffff820361020e5761020d6101a2565b5b600182019050919050565b60006102248261013f565b915061022f8361013f565b9250828201905080821115610247576102466101a2565b5b9291505056fea2646970667358221220646ee7e4e1a628e0a6b75eb8b30c3470452a9709be932ca18eebf3f586056b1564736f6c63430008120033",
  "linkReferences": {},
  "deployedLinkReferences": {}
}